:0800000014C0FECFFDCFFCCFC0
:10000800FBCFFACFF9CFF8CFF7CFF6CFF5CFF4CFB4
:10001800F3CFF2CFF1CFF0CFEFCFEECFEDCFECCFE4
:10002800EBCFF894EE27ECBBE5BF8DE0A2E0ED93B3
:100038008A95E9F780E8A0E6ED938A95E9F7E0E08C
:10004800E3BBE4BBE5BBEFEDEDBFC0E800C0E0E813
:10005800E6BDE0E0E6BDEABBEBBBEFEFE7BBE8BB24
:10006800E0E0E1BBEFE7E2BBE0E0E0BFE3BFE2BF17
:10007800E6BFECBFEFBDEEBDEDBDECBDE5BDE4BD3B
:10008800EBBDEABDE9BDE8BDE9BFE5BFEBBFEDB932
:10009800EAB9E0E8E8B9E0E0E1B9809B02C0C09ABB
:1000A800FCCF809909C0B09B02C0C09801C0C09A1B
:1000B800A8ECB0E003D0F5CFF0CFFFCF109639F021
:1000C800A89588EE93E00197F1F71197C9F708957D
:00000001FF
